{
    "_format": "hh-sol-artifact-1",
    "contractName": "PriceMonitoringAction",
    "sourceName": "contracts/Price_Feed.sol",
    "abi": [
        {
            "inputs": [
                {
                    "internalType": "address",
                    "name": "tokenAddress",
                    "type": "address"
                }
            ],
            "stateMutability": "nonpayable",
            "type": "constructor"
        },
        {
            "anonymous": false,
            "inputs": [
                {
                    "indexed": false,
                    "internalType": "address",
                    "name": "recipient",
                    "type": "address"
                },
                {
                    "indexed": false,
                    "internalType": "string",
                    "name": "symbol",
                    "type": "string"
                },
                {
                    "indexed": false,
                    "internalType": "uint256",
                    "name": "amount",
                    "type": "uint256"
                },
                {
                    "indexed": false,
                    "internalType": "uint256",
                    "name": "price",
                    "type": "uint256"
                }
            ],
            "name": "CryptoReleased",
            "type": "event"
        },
        {
            "anonymous": false,
            "inputs": [
                {
                    "indexed": false,
                    "internalType": "string",
                    "name": "symbol",
                    "type": "string"
                },
                {
                    "indexed": false,
                    "internalType": "address",
                    "name": "feedAddress",
                    "type": "address"
                }
            ],
            "name": "PriceFeedUpdated",
            "type": "event"
        },
        {
            "anonymous": false,
            "inputs": [
                {
                    "indexed": false,
                    "internalType": "uint256",
                    "name": "newThreshold",
                    "type": "uint256"
                },
                {
                    "indexed": false,
                    "internalType": "bool",
                    "name": "active",
                    "type": "bool"
                }
            ],
            "name": "ThresholdUpdated",
            "type": "event"
        },
        {
            "anonymous": false,
            "inputs": [
                {
                    "indexed": false,
                    "internalType": "address",
                    "name": "seller",
                    "type": "address"
                },
                {
                    "indexed": false,
                    "internalType": "string",
                    "name": "symbol",
                    "type": "string"
                },
                {
                    "indexed": false,
                    "internalType": "uint256",
                    "name": "amount",
                    "type": "uint256"
                },
                {
                    "indexed": false,
                    "internalType": "uint256",
                    "name": "price",
                    "type": "uint256"
                }
            ],
            "name": "TokenSold",
            "type": "event"
        },
        {
            "anonymous": false,
            "inputs": [
                {
                    "indexed": false,
                    "internalType": "address",
                    "name": "recipient",
                    "type": "address"
                },
                {
                    "indexed": false,
                    "internalType": "uint256",
                    "name": "amount",
                    "type": "uint256"
                },
                {
                    "indexed": false,
                    "internalType": "uint256",
                    "name": "price",
                    "type": "uint256"
                }
            ],
            "name": "TokensMinted",
            "type": "event"
        },
        {
            "inputs": [],
            "name": "admin",
            "outputs": [
                {
                    "internalType": "address",
                    "name": "",
                    "type": "address"
                }
            ],
            "stateMutability": "view",
            "type": "function"
        },
        {
            "inputs": [
                {
                    "internalType": "string[]",
                    "name": "symbols",
                    "type": "string[]"
                },
                {
                    "internalType": "address[]",
                    "name": "feedAddresses",
                    "type": "address[]"
                }
            ],
            "name": "batchSetPriceFeeds",
            "outputs": [],
            "stateMutability": "nonpayable",
            "type": "function"
        },
        {
            "inputs": [],
            "name": "ethMintThreshold",
            "outputs": [
                {
                    "internalType": "uint256",
                    "name": "",
                    "type": "uint256"
                }
            ],
            "stateMutability": "view",
            "type": "function"
        },
        {
            "inputs": [
                {
                    "internalType": "string[]",
                    "name": "symbols",
                    "type": "string[]"
                }
            ],
            "name": "getAllPrices",
            "outputs": [
                {
                    "internalType": "uint256[]",
                    "name": "",
                    "type": "uint256[]"
                }
            ],
            "stateMutability": "view",
            "type": "function"
        },
        {
            "inputs": [
                {
                    "internalType": "string",
                    "name": "symbol",
                    "type": "string"
                }
            ],
            "name": "getDisplayPrice",
            "outputs": [
                {
                    "internalType": "uint256",
                    "name": "",
                    "type": "uint256"
                }
            ],
            "stateMutability": "view",
            "type": "function"
        },
        {
            "inputs": [
                {
                    "internalType": "string",
                    "name": "symbol",
                    "type": "string"
                }
            ],
            "name": "getPriceInUSD",
            "outputs": [
                {
                    "internalType": "uint256",
                    "name": "",
                    "type": "uint256"
                }
            ],
            "stateMutability": "view",
            "type": "function"
        },
        {
            "inputs": [
                {
                    "internalType": "string",
                    "name": "",
                    "type": "string"
                }
            ],
            "name": "historicalPeaks",
            "outputs": [
                {
                    "internalType": "uint256",
                    "name": "",
                    "type": "uint256"
                }
            ],
            "stateMutability": "view",
            "type": "function"
        },
        {
            "inputs": [],
            "name": "isThresholdActive",
            "outputs": [
                {
                    "internalType": "bool",
                    "name": "",
                    "type": "bool"
                }
            ],
            "stateMutability": "view",
            "type": "function"
        },
        {
            "inputs": [
                {
                    "internalType": "address",
                    "name": "to",
                    "type": "address"
                }
            ],
            "name": "mintNow",
            "outputs": [],
            "stateMutability": "nonpayable",
            "type": "function"
        },
        {
            "inputs": [
                {
                    "internalType": "string",
                    "name": "",
                    "type": "string"
                }
            ],
            "name": "priceFeeds",
            "outputs": [
                {
                    "internalType": "contract AggregatorV3Interface",
                    "name": "",
                    "type": "address"
                }
            ],
            "stateMutability": "view",
            "type": "function"
        },
        {
            "inputs": [
                {
                    "internalType": "string",
                    "name": "symbol",
                    "type": "string"
                }
            ],
            "name": "releaseCrypto",
            "outputs": [],
            "stateMutability": "nonpayable",
            "type": "function"
        },
        {
            "inputs": [
                {
                    "internalType": "string",
                    "name": "symbol",
                    "type": "string"
                },
                {
                    "internalType": "uint256",
                    "name": "amount",
                    "type": "uint256"
                }
            ],
            "name": "saveCrypto",
            "outputs": [],
            "stateMutability": "nonpayable",
            "type": "function"
        },
        {
            "inputs": [
                {
                    "internalType": "address",
                    "name": "",
                    "type": "address"
                },
                {
                    "internalType": "string",
                    "name": "",
                    "type": "string"
                }
            ],
            "name": "savedCrypto",
            "outputs": [
                {
                    "internalType": "uint256",
                    "name": "",
                    "type": "uint256"
                }
            ],
            "stateMutability": "view",
            "type": "function"
        },
        {
            "inputs": [
                {
                    "internalType": "string",
                    "name": "symbol",
                    "type": "string"
                },
                {
                    "internalType": "uint256",
                    "name": "amount",
                    "type": "uint256"
                }
            ],
            "name": "sellTokens",
            "outputs": [],
            "stateMutability": "nonpayable",
            "type": "function"
        },
        {
            "inputs": [
                {
                    "internalType": "string",
                    "name": "symbol",
                    "type": "string"
                },
                {
                    "internalType": "address",
                    "name": "feedAddress",
                    "type": "address"
                }
            ],
            "name": "setPriceFeed",
            "outputs": [],
            "stateMutability": "nonpayable",
            "type": "function"
        },
        {
            "inputs": [],
            "name": "token",
            "outputs": [
                {
                    "internalType": "contract SimpleToken",
                    "name": "",
                    "type": "address"
                }
            ],
            "stateMutability": "view",
            "type": "function"
        },
        {
            "inputs": [
                {
                    "internalType": "address",
                    "name": "newAdmin",
                    "type": "address"
                }
            ],
            "name": "transferAdmin",
            "outputs": [],
            "stateMutability": "nonpayable",
            "type": "function"
        },
        {
            "inputs": [
                {
                    "internalType": "uint256",
                    "name": "newThreshold",
                    "type": "uint256"
                },
                {
                    "internalType": "bool",
                    "name": "active",
                    "type": "bool"
                }
            ],
            "name": "updateThreshold",
            "outputs": [],
            "stateMutability": "nonpayable",
            "type": "function"
        }
    ],
    "bytecode": "0x608060405234801561001057600080fd5b506040516129a83803806129a883398181016040528101906100329190610144565b80600160006101000a81548173ffffffffffffffffffffffffffffffffffffffff021916908373ffffffffffffffffffffffffffffffffffffffff16021790555033600360016101000a81548173ffffffffffffffffffffffffffffffffffffffff021916908373ffffffffffffffffffffffffffffffffffffffff1602179055506422ecb25c006002819055506001600360006101000a81548160ff02191690831515021790555050610171565b600080fd5b600073ffffffffffffffffffffffffffffffffffffffff82169050919050565b6000610111826100e6565b9050919050565b61012181610106565b811461012c57600080fd5b50565b60008151905061013e81610118565b92915050565b60006020828403121561015a576101596100e1565b5b60006101688482850161012f565b91505092915050565b612828806101806000396000f3fe608060405234801561001057600080fd5b50600436106101165760003560e01c80637ffe3964116100a2578063e3dfd7b511610071578063e3dfd7b514610303578063f3b3347e1461031f578063f7e05bcc1461033b578063f851a44014610357578063fc0c546a1461037557610116565b80637ffe396414610255578063818628f71461028557806398372e84146102b5578063cb8ae86c146102d357610116565b806375829def116100e957806375829def146101b557806377530e60146101d15780637c5c8026146101ed5780637c8ef419146102095780637d8ca7c61461022557610116565b80630daaa3451461011b5780631cdcd169146101395780635f576c441461016957806366ee69d914610185575b600080fd5b610123610393565b6040516101309190611436565b60405180910390f35b610153600480360381019061014e91906115ab565b610399565b6040516101609190611436565b60405180910390f35b610183600480360381019061017e9190611620565b610547565b005b61019f600480360381019061019a91906115ab565b6107ce565b6040516101ac9190611436565b60405180910390f35b6101cf60048036038101906101ca91906116da565b6107fc565b005b6101eb60048036038101906101e69190611620565b61093f565b005b610207600480360381019061020291906116da565b6109b5565b005b610223600480360381019061021e91906118b0565b610b68565b005b61023f600480360381019061023a9190611928565b610d58565b60405161024c9190611436565b60405180910390f35b61026f600480360381019061026a91906115ab565b610d93565b60405161027c9190611436565b60405180910390f35b61029f600480360381019061029a9190611984565b610e7e565b6040516102ac9190611a8b565b60405180910390f35b6102bd610fc0565b6040516102ca9190611ac8565b60405180910390f35b6102ed60048036038101906102e891906115ab565b610fd3565b6040516102fa9190611b42565b60405180910390f35b61031d600480360381019061031891906115ab565b61101c565b005b61033960048036038101906103349190611b5d565b6111b9565b005b61035560048036038101906103509190611be5565b6112e3565b005b61035f6113d1565b60405161036c9190611c34565b60405180910390f35b61037d6113f7565b60405161038a9190611c70565b60405180910390f35b60025481565b60008073ffffffffffffffffffffffffffffffffffffffff166000836040516103c29190611cfc565b908152602001604051809103902060009054906101000a900473ffffffffffffffffffffffffffffffffffffffff1673ffffffffffffffffffffffffffffffffffffffff1603610447576040517f08c379a000000000000000000000000000000000000000000000000000000000815260040161043e90611d70565b60405180910390fd5b600080836040516104589190611cfc565b908152602001604051809103902060009054906101000a900473ffffffffffffffffffffffffffffffffffffffff1673ffffffffffffffffffffffffffffffffffffffff1663feaf968c6040518163ffffffff1660e01b815260040160a060405180830381865afa1580156104d1573d6000803e3d6000fd5b505050506040513d601f19601f820116820180604052508101906104f59190611e1d565b5050509150506000811361053e576040517f08c379a000000000000000000000000000000000000000000000000000000000815260040161053590611ee4565b60405180910390fd5b80915050919050565b80600160009054906101000a900473ffffffffffffffffffffffffffffffffffffffff1673ffffffffffffffffffffffffffffffffffffffff166370a08231336040518263ffffffff1660e01b81526004016105a39190611c34565b602060405180830381865afa1580156105c0573d6000803e3d6000fd5b505050506040513d601f19601f820116820180604052508101906105e49190611f04565b1015610625576040517f08c379a000000000000000000000000000000000000000000000000000000000815260040161061c90611f7d565b60405180910390fd5b600061063083610399565b90506064605a6005856040516106469190611cfc565b90815260200160405180910390205461065f9190611fcc565b610669919061203d565b8110156106ab576040517f08c379a00000000000000000000000000000000000000000000000000000000081526004016106a2906120ba565b60405180910390fd5b600160009054906101000a900473ffffffffffffffffffffffffffffffffffffffff1673ffffffffffffffffffffffffffffffffffffffff166323b872dd3330856040518463ffffffff1660e01b815260040161070a939291906120da565b6020604051808303816000875af1158015610729573d6000803e3d6000fd5b505050506040513d601f19601f8201168201806040525081019061074d9190612126565b61078c576040517f08c379a00000000000000000000000000000000000000000000000000000000081526004016107839061219f565b60405180910390fd5b7f4f77de3053e0af24b9525f2f04b40c2ab3e8819d5160f3131f61ab37ad9cd82f338484846040516107c194939291906121f8565b60405180910390a1505050565b6005818051602081018201805184825260208301602085012081835280955050505050506000915090505481565b600360019054906101000a900473ffffffffffffffffffffffffffffffffffffffff1673ffffffffffffffffffffffffffffffffffffffff163373ffffffffffffffffffffffffffffffffffffffff161461088c576040517f08c379a0000000000000000000000000000000000000000000000000000000008152600401610883906122b6565b60405180910390fd5b600073ffffffffffffffffffffffffffffffffffffffff168173ffffffffffffffffffffffffffffffffffffffff16036108fb576040517f08c379a00000000000000000000000000000000000000000000000000000000081526004016108f290612322565b60405180910390fd5b80600360016101000a81548173ffffffffffffffffffffffffffffffffffffffff021916908373ffffffffffffffffffffffffffffffffffffffff16021790555050565b80600460003373ffffffffffffffffffffffffffffffffffffffff1673ffffffffffffffffffffffffffffffffffffffff1681526020019081526020016000208360405161098d9190611cfc565b908152602001604051809103902060008282546109aa9190612342565b925050819055505050565b600360009054906101000a900460ff16610a04576040517f08c379a00000000000000000000000000000000000000000000000000000000081526004016109fb906123c2565b60405180910390fd5b6000610a446040518060400160405280600781526020017f4554482f55534400000000000000000000000000000000000000000000000000815250610399565b9050600254811015610a8b576040517f08c379a0000000000000000000000000000000000000000000000000000000008152600401610a829061242e565b60405180910390fd5b600068056bc75e2d631000009050600160009054906101000a900473ffffffffffffffffffffffffffffffffffffffff1673ffffffffffffffffffffffffffffffffffffffff166340c10f1984836040518363ffffffff1660e01b8152600401610af692919061244e565b600060405180830381600087803b158015610b1057600080fd5b505af1158015610b24573d6000803e3d6000fd5b505050507f2e8ac5177a616f2aec08c3048f5021e4e9743ece034e8d83ba5caf76688bb475838284604051610b5b93929190612477565b60405180910390a1505050565b600360019054906101000a900473ffffffffffffffffffffffffffffffffffffffff1673ffffffffffffffffffffffffffffffffffffffff163373ffffffffffffffffffffffffffffffffffffffff1614610bf8576040517f08c379a0000000000000000000000000000000000000000000000000000000008152600401610bef906122b6565b60405180910390fd5b8051825114610c3c576040517f08c379a0000000000000000000000000000000000000000000000000000000008152600401610c33906124fa565b60405180910390fd5b60005b8251811015610d5357818181518110610c5b57610c5a61251a565b5b60200260200101516000848381518110610c7857610c7761251a565b5b6020026020010151604051610c8d9190611cfc565b908152602001604051809103902060006101000a81548173ffffffffffffffffffffffffffffffffffffffff021916908373ffffffffffffffffffffffffffffffffffffffff1602179055507f74b9819a3b3ab6f1735c195541c4352dec722e0e22f92198d9f1719d2e89a757838281518110610d0d57610d0c61251a565b5b6020026020010151838381518110610d2857610d2761251a565b5b6020026020010151604051610d3e929190612549565b60405180910390a18080600101915050610c3f565b505050565b600460205281600052604060002081805160208101820180518482526020830160208501208183528095505050505050600091509150505481565b600080610d9f83610399565b905060008084604051610db29190611cfc565b908152602001604051809103902060009054906101000a900473ffffffffffffffffffffffffffffffffffffffff1673ffffffffffffffffffffffffffffffffffffffff1663313ce5676040518163ffffffff1660e01b8152600401602060405180830381865afa158015610e2b573d6000803e3d6000fd5b505050506040513d601f19601f82011682018060405250810190610e4f91906125b2565b905080600a610e5e9190612712565b606483610e6b9190611fcc565b610e75919061203d565b92505050919050565b60606000825167ffffffffffffffff811115610e9d57610e9c611480565b5b604051908082528060200260200182016040528015610ecb5781602001602082028036833780820191505090505b50905060005b8351811015610fb657600073ffffffffffffffffffffffffffffffffffffffff166000858381518110610f0757610f0661251a565b5b6020026020010151604051610f1c9190611cfc565b908152602001604051809103902060009054906101000a900473ffffffffffffffffffffffffffffffffffffffff1673ffffffffffffffffffffffffffffffffffffffff1614610fa957610f89848281518110610f7c57610f7b61251a565b5b6020026020010151610d93565b828281518110610f9c57610f9b61251a565b5b6020026020010181815250505b8080600101915050610ed1565b5080915050919050565b600360009054906101000a900460ff1681565b6000818051602081018201805184825260208301602085012081835280955050505050506000915054906101000a900473ffffffffffffffffffffffffffffffffffffffff1681565b6000600460003373ffffffffffffffffffffffffffffffffffffffff1673ffffffffffffffffffffffffffffffffffffffff1681526020019081526020016000208260405161106b9190611cfc565b9081526020016040518091039020549050600081116110bf576040517f08c379a00000000000000000000000000000000000000000000000000000000081526004016110b6906127a9565b60405180910390fd5b60006110ca83610399565b90506005836040516110dc9190611cfc565b90815260200160405180910390205481111561111657806005846040516111039190611cfc565b9081526020016040518091039020819055505b6000600460003373ffffffffffffffffffffffffffffffffffffffff1673ffffffffffffffffffffffffffffffffffffffff168152602001908152602001600020846040516111659190611cfc565b9081526020016040518091039020819055507fefa995cc779205a43adad150236f07969f51186b83ef23d2c85e0a0a13b6c08a338484846040516111ac94939291906121f8565b60405180910390a1505050565b600360019054906101000a900473ffffffffffffffffffffffffffffffffffffffff1673ffffffffffffffffffffffffffffffffffffffff163373ffffffffffffffffffffffffffffffffffffffff1614611249576040517f08c379a0000000000000000000000000000000000000000000000000000000008152600401611240906122b6565b60405180910390fd5b8060008360405161125a9190611cfc565b908152602001604051809103902060006101000a81548173ffffffffffffffffffffffffffffffffffffffff021916908373ffffffffffffffffffffffffffffffffffffffff1602179055507f74b9819a3b3ab6f1735c195541c4352dec722e0e22f92198d9f1719d2e89a75782826040516112d7929190612549565b60405180910390a15050565b600360019054906101000a900473ffffffffffffffffffffffffffffffffffffffff1673ffffffffffffffffffffffffffffffffffffffff163373ffffffffffffffffffffffffffffffffffffffff1614611373576040517f08c379a000000000000000000000000000000000000000000000000000000000815260040161136a906122b6565b60405180910390fd5b8160028190555080600360006101000a81548160ff0219169083151502179055507f4bdb53411c2b8e3ab2000687b3bbe46cce192e1fcbb0fecb5854ef75a189e0ed82826040516113c59291906127c9565b60405180910390a15050565b600360019054906101000a900473ffffffffffffffffffffffffffffffffffffffff1681565b600160009054906101000a900473ffffffffffffffffffffffffffffffffffffffff1681565b6000819050919050565b6114308161141d565b82525050565b600060208201905061144b6000830184611427565b92915050565b6000604051905090565b600080fd5b600080fd5b600080fd5b600080fd5b6000601f19601f8301169050919050565b7f4e487b7100000000000000000000000000000000000000000000000000000000600052604160045260246000fd5b6114b88261146f565b810181811067ffffffffffffffff821117156114d7576114d6611480565b5b80604052505050565b60006114ea611451565b90506114f682826114af565b919050565b600067ffffffffffffffff82111561151657611515611480565b5b61151f8261146f565b9050602081019050919050565b82818337600083830152505050565b600061154e611549846114fb565b6114e0565b90508281526020810184848401111561156a5761156961146a565b5b61157584828561152c565b509392505050565b600082601f83011261159257611591611465565b5b81356115a284826020860161153b565b91505092915050565b6000602082840312156115c1576115c061145b565b5b600082013567ffffffffffffffff8111156115df576115de611460565b5b6115eb8482850161157d565b91505092915050565b6115fd8161141d565b811461160857600080fd5b50565b60008135905061161a816115f4565b92915050565b600080604083850312156116375761163661145b565b5b600083013567ffffffffffffffff81111561165557611654611460565b5b6116618582860161157d565b92505060206116728582860161160b565b9150509250929050565b600073ffffffffffffffffffffffffffffffffffffffff82169050919050565b60006116a78261167c565b9050919050565b6116b78161169c565b81146116c257600080fd5b50565b6000813590506116d4816116ae565b92915050565b6000602082840312156116f0576116ef61145b565b5b60006116fe848285016116c5565b91505092915050565b600067ffffffffffffffff82111561172257611721611480565b5b602082029050602081019050919050565b600080fd5b600061174b61174684611707565b6114e0565b9050808382526020820190506020840283018581111561176e5761176d611733565b5b835b818110156117b557803567ffffffffffffffff81111561179357611792611465565b5b8086016117a0898261157d565b85526020850194505050602081019050611770565b5050509392505050565b600082601f8301126117d4576117d3611465565b5b81356117e4848260208601611738565b91505092915050565b600067ffffffffffffffff82111561180857611807611480565b5b602082029050602081019050919050565b600061182c611827846117ed565b6114e0565b9050808382526020820190506020840283018581111561184f5761184e611733565b5b835b81811015611878578061186488826116c5565b845260208401935050602081019050611851565b5050509392505050565b600082601f83011261189757611896611465565b5b81356118a7848260208601611819565b91505092915050565b600080604083850312156118c7576118c661145b565b5b600083013567ffffffffffffffff8111156118e5576118e4611460565b5b6118f1858286016117bf565b925050602083013567ffffffffffffffff81111561191257611911611460565b5b61191e85828601611882565b9150509250929050565b6000806040838503121561193f5761193e61145b565b5b600061194d858286016116c5565b925050602083013567ffffffffffffffff81111561196e5761196d611460565b5b61197a8582860161157d565b9150509250929050565b60006020828403121561199a5761199961145b565b5b600082013567ffffffffffffffff8111156119b8576119b7611460565b5b6119c4848285016117bf565b91505092915050565b600081519050919050565b600082825260208201905092915050565b6000819050602082019050919050565b611a028161141d565b82525050565b6000611a1483836119f9565b60208301905092915050565b6000602082019050919050565b6000611a38826119cd565b611a4281856119d8565b9350611a4d836119e9565b8060005b83811015611a7e578151611a658882611a08565b9750611a7083611a20565b925050600181019050611a51565b5085935050505092915050565b60006020820190508181036000830152611aa58184611a2d565b905092915050565b60008115159050919050565b611ac281611aad565b82525050565b6000602082019050611add6000830184611ab9565b92915050565b6000819050919050565b6000611b08611b03611afe8461167c565b611ae3565b61167c565b9050919050565b6000611b1a82611aed565b9050919050565b6000611b2c82611b0f565b9050919050565b611b3c81611b21565b82525050565b6000602082019050611b576000830184611b33565b92915050565b60008060408385031215611b7457611b7361145b565b5b600083013567ffffffffffffffff811115611b9257611b91611460565b5b611b9e8582860161157d565b9250506020611baf858286016116c5565b9150509250929050565b611bc281611aad565b8114611bcd57600080fd5b50565b600081359050611bdf81611bb9565b92915050565b60008060408385031215611bfc57611bfb61145b565b5b6000611c0a8582860161160b565b9250506020611c1b85828601611bd0565b9150509250929050565b611c2e8161169c565b82525050565b6000602082019050611c496000830184611c25565b92915050565b6000611c5a82611b0f565b9050919050565b611c6a81611c4f565b82525050565b6000602082019050611c856000830184611c61565b92915050565b600081519050919050565b600081905092915050565b60005b83811015611cbf578082015181840152602081019050611ca4565b60008484015250505050565b6000611cd682611c8b565b611ce08185611c96565b9350611cf0818560208601611ca1565b80840191505092915050565b6000611d088284611ccb565b915081905092915050565b600082825260208201905092915050565b7f50726963652066656564206e6f7420666f756e64000000000000000000000000600082015250565b6000611d5a601483611d13565b9150611d6582611d24565b602082019050919050565b60006020820190508181036000830152611d8981611d4d565b9050919050565b600069ffffffffffffffffffff82169050919050565b611daf81611d90565b8114611dba57600080fd5b50565b600081519050611dcc81611da6565b92915050565b6000819050919050565b611de581611dd2565b8114611df057600080fd5b50565b600081519050611e0281611ddc565b92915050565b600081519050611e17816115f4565b92915050565b600080600080600060a08688031215611e3957611e3861145b565b5b6000611e4788828901611dbd565b9550506020611e5888828901611df3565b9450506040611e6988828901611e08565b9350506060611e7a88828901611e08565b9250506080611e8b88828901611dbd565b9150509295509295909350565b7f496e76616c696420707269636500000000000000000000000000000000000000600082015250565b6000611ece600d83611d13565b9150611ed982611e98565b602082019050919050565b60006020820190508181036000830152611efd81611ec1565b9050919050565b600060208284031215611f1a57611f1961145b565b5b6000611f2884828501611e08565b91505092915050565b7f496e73756666696369656e7420746f6b656e7300000000000000000000000000600082015250565b6000611f67601383611d13565b9150611f7282611f31565b602082019050919050565b60006020820190508181036000830152611f9681611f5a565b9050919050565b7f4e487b7100000000000000000000000000000000000000000000000000000000600052601160045260246000fd5b6000611fd78261141d565b9150611fe28361141d565b9250828202611ff08161141d565b9150828204841483151761200757612006611f9d565b5b5092915050565b7f4e487b7100000000000000000000000000000000000000000000000000000000600052601260045260246000fd5b60006120488261141d565b91506120538361141d565b9250826120635761206261200e565b5b828204905092915050565b7f5072696365206e6f74206f7074696d616c20666f722073656c6c696e67000000600082015250565b60006120a4601d83611d13565b91506120af8261206e565b602082019050919050565b600060208201905081810360008301526120d381612097565b9050919050565b60006060820190506120ef6000830186611c25565b6120fc6020830185611c25565b6121096040830184611427565b949350505050565b60008151905061212081611bb9565b92915050565b60006020828403121561213c5761213b61145b565b5b600061214a84828501612111565b91505092915050565b7f5472616e73666572206661696c65640000000000000000000000000000000000600082015250565b6000612189600f83611d13565b915061219482612153565b602082019050919050565b600060208201905081810360008301526121b88161217c565b9050919050565b60006121ca82611c8b565b6121d48185611d13565b93506121e4818560208601611ca1565b6121ed8161146f565b840191505092915050565b600060808201905061220d6000830187611c25565b818103602083015261221f81866121bf565b905061222e6040830185611427565b61223b6060830184611427565b95945050505050565b7f4f6e6c792061646d696e2063616e2063616c6c20746869732066756e6374696f60008201527f6e00000000000000000000000000000000000000000000000000000000000000602082015250565b60006122a0602183611d13565b91506122ab82612244565b604082019050919050565b600060208201905081810360008301526122cf81612293565b9050919050565b7f4e65772061646d696e2063616e6e6f74206265207a65726f2061646472657373600082015250565b600061230c602083611d13565b9150612317826122d6565b602082019050919050565b6000602082019050818103600083015261233b816122ff565b9050919050565b600061234d8261141d565b91506123588361141d565b92508282019050808211156123705761236f611f9d565b5b92915050565b7f4d696e74696e67207468726573686f6c64206e6f742061637469766500000000600082015250565b60006123ac601c83611d13565b91506123b782612376565b602082019050919050565b600060208201905081810360008301526123db8161239f565b9050919050565b7f4554482070726963652062656c6f77207468726573686f6c6400000000000000600082015250565b6000612418601983611d13565b9150612423826123e2565b602082019050919050565b600060208201905081810360008301526124478161240b565b9050919050565b60006040820190506124636000830185611c25565b6124706020830184611427565b9392505050565b600060608201905061248c6000830186611c25565b6124996020830185611427565b6124a66040830184611427565b949350505050565b7f4172726179206c656e677468206d69736d617463680000000000000000000000600082015250565b60006124e4601583611d13565b91506124ef826124ae565b602082019050919050565b60006020820190508181036000830152612513816124d7565b9050919050565b7f4e487b7100000000000000000000000000000000000000000000000000000000600052603260045260246000fd5b6000604082019050818103600083015261256381856121bf565b90506125726020830184611c25565b9392505050565b600060ff82169050919050565b61258f81612579565b811461259a57600080fd5b50565b6000815190506125ac81612586565b92915050565b6000602082840312156125c8576125c761145b565b5b60006125d68482850161259d565b91505092915050565b60008160011c9050919050565b6000808291508390505b60018511156126365780860481111561261257612611611f9d565b5b60018516156126215780820291505b808102905061262f856125df565b94506125f6565b94509492505050565b60008261264f576001905061270b565b8161265d576000905061270b565b8160018114612673576002811461267d576126ac565b600191505061270b565b60ff84111561268f5761268e611f9d565b5b8360020a9150848211156126a6576126a5611f9d565b5b5061270b565b5060208310610133831016604e8410600b84101617156126e15782820a9050838111156126dc576126db611f9d565b5b61270b565b6126ee84848460016125ec565b9250905081840481111561270557612704611f9d565b5b81810290505b9392505050565b600061271d8261141d565b915061272883612579565b92506127557fffffffffffffffffffffffffffffffffffffffffffffffffffffffffffffffff848461263f565b905092915050565b7f4e6f2073617665642063727970746f206f662074686973207479706500000000600082015250565b6000612793601c83611d13565b915061279e8261275d565b602082019050919050565b600060208201905081810360008301526127c281612786565b9050919050565b60006040820190506127de6000830185611427565b6127eb6020830184611ab9565b939250505056fea264697066735822122081273e8c03fc89ddf05971f5a8359afac179183a858aedff057e1ec70390c32464736f6c634300081c0033",
    "linkReferences": {},
    "deployedLinkReferences": {}
}