{
  "_format": "hh-sol-artifact-1",
  "contractName": "PriceMonitoringAction",
  "sourceName": "contracts/Price_Feed.sol",
  "abi": [
    {
      "inputs": [
        {
          "internalType": "address",
          "name": "tokenAddress",
          "type": "address"
        }
      ],
      "stateMutability": "nonpayable",
      "type": "constructor"
    },
    {
      "inputs": [],
      "name": "ArrayMismatch",
      "type": "error"
    },
    {
      "inputs": [],
      "name": "CannotBeAccountZero",
      "type": "error"
    },
    {
      "inputs": [],
      "name": "CryptoNotSaved",
      "type": "error"
    },
    {
      "inputs": [],
      "name": "ETHBelowThreshold",
      "type": "error"
    },
    {
      "inputs": [],
      "name": "InsufficientToken",
      "type": "error"
    },
    {
      "inputs": [],
      "name": "InvalidPrice",
      "type": "error"
    },
    {
      "inputs": [],
      "name": "NotAdmin",
      "type": "error"
    },
    {
      "inputs": [],
      "name": "PriceNotFound",
      "type": "error"
    },
    {
      "inputs": [],
      "name": "PriceNotOptimal",
      "type": "error"
    },
    {
      "inputs": [],
      "name": "ThresholdNotActive",
      "type": "error"
    },
    {
      "inputs": [],
      "name": "TransferFailed",
      "type": "error"
    },
    {
      "anonymous": false,
      "inputs": [
        {
          "indexed": false,
          "internalType": "address",
          "name": "recipient",
          "type": "address"
        },
        {
          "indexed": false,
          "internalType": "string",
          "name": "symbol",
          "type": "string"
        },
        {
          "indexed": false,
          "internalType": "uint256",
          "name": "amount",
          "type": "uint256"
        },
        {
          "indexed": false,
          "internalType": "uint256",
          "name": "price",
          "type": "uint256"
        }
      ],
      "name": "CryptoReleased",
      "type": "event"
    },
    {
      "anonymous": false,
      "inputs": [
        {
          "indexed": false,
          "internalType": "string",
          "name": "symbol",
          "type": "string"
        },
        {
          "indexed": false,
          "internalType": "address",
          "name": "feedAddress",
          "type": "address"
        }
      ],
      "name": "FeedRegistered",
      "type": "event"
    },
    {
      "anonymous": false,
      "inputs": [
        {
          "indexed": false,
          "internalType": "string",
          "name": "symbol",
          "type": "string"
        },
        {
          "indexed": false,
          "internalType": "address",
          "name": "feedAddress",
          "type": "address"
        }
      ],
      "name": "PriceFeedUpdated",
      "type": "event"
    },
    {
      "anonymous": false,
      "inputs": [
        {
          "indexed": false,
          "internalType": "uint256",
          "name": "newThreshold",
          "type": "uint256"
        },
        {
          "indexed": false,
          "internalType": "bool",
          "name": "active",
          "type": "bool"
        }
      ],
      "name": "ThresholdUpdated",
      "type": "event"
    },
    {
      "anonymous": false,
      "inputs": [
        {
          "indexed": false,
          "internalType": "address",
          "name": "seller",
          "type": "address"
        },
        {
          "indexed": false,
          "internalType": "string",
          "name": "symbol",
          "type": "string"
        },
        {
          "indexed": false,
          "internalType": "uint256",
          "name": "amount",
          "type": "uint256"
        },
        {
          "indexed": false,
          "internalType": "uint256",
          "name": "price",
          "type": "uint256"
        }
      ],
      "name": "TokenSold",
      "type": "event"
    },
    {
      "anonymous": false,
      "inputs": [
        {
          "indexed": false,
          "internalType": "address",
          "name": "recipient",
          "type": "address"
        },
        {
          "indexed": false,
          "internalType": "uint256",
          "name": "amount",
          "type": "uint256"
        },
        {
          "indexed": false,
          "internalType": "uint256",
          "name": "price",
          "type": "uint256"
        }
      ],
      "name": "TokensMinted",
      "type": "event"
    },
    {
      "inputs": [],
      "name": "admin",
      "outputs": [
        {
          "internalType": "address",
          "name": "",
          "type": "address"
        }
      ],
      "stateMutability": "view",
      "type": "function"
    },
    {
      "inputs": [
        {
          "internalType": "string[]",
          "name": "symbols",
          "type": "string[]"
        },
        {
          "internalType": "address[]",
          "name": "feedAddresses",
          "type": "address[]"
        }
      ],
      "name": "batchSetPriceFeeds",
      "outputs": [],
      "stateMutability": "nonpayable",
      "type": "function"
    },
    {
      "inputs": [
        {
          "internalType": "bytes",
          "name": "",
          "type": "bytes"
        }
      ],
      "name": "checkUpkeep",
      "outputs": [
        {
          "internalType": "bool",
          "name": "upkeepNeeded",
          "type": "bool"
        },
        {
          "internalType": "bytes",
          "name": "performData",
          "type": "bytes"
        }
      ],
      "stateMutability": "view",
      "type": "function"
    },
    {
      "inputs": [
        {
          "internalType": "string",
          "name": "symbol",
          "type": "string"
        }
      ],
      "name": "debugPriceFeed",
      "outputs": [
        {
          "internalType": "address",
          "name": "feedAddress",
          "type": "address"
        },
        {
          "internalType": "uint8",
          "name": "decimals",
          "type": "uint8"
        },
        {
          "internalType": "string",
          "name": "description",
          "type": "string"
        }
      ],
      "stateMutability": "view",
      "type": "function"
    },
    {
      "inputs": [],
      "name": "ethMintThreshold",
      "outputs": [
        {
          "internalType": "uint256",
          "name": "",
          "type": "uint256"
        }
      ],
      "stateMutability": "view",
      "type": "function"
    },
    {
      "inputs": [
        {
          "internalType": "string[]",
          "name": "symbols",
          "type": "string[]"
        }
      ],
      "name": "getAllPrices",
      "outputs": [
        {
          "internalType": "uint256[]",
          "name": "",
          "type": "uint256[]"
        }
      ],
      "stateMutability": "view",
      "type": "function"
    },
    {
      "inputs": [
        {
          "internalType": "string",
          "name": "symbol",
          "type": "string"
        }
      ],
      "name": "getDisplayPrice",
      "outputs": [
        {
          "internalType": "uint256",
          "name": "",
          "type": "uint256"
        }
      ],
      "stateMutability": "view",
      "type": "function"
    },
    {
      "inputs": [
        {
          "internalType": "string",
          "name": "symbol",
          "type": "string"
        }
      ],
      "name": "getPriceInUSD",
      "outputs": [
        {
          "internalType": "uint256",
          "name": "",
          "type": "uint256"
        }
      ],
      "stateMutability": "view",
      "type": "function"
    },
    {
      "inputs": [],
      "name": "getSupportedSymbols",
      "outputs": [
        {
          "internalType": "string[]",
          "name": "",
          "type": "string[]"
        }
      ],
      "stateMutability": "view",
      "type": "function"
    },
    {
      "inputs": [
        {
          "internalType": "string",
          "name": "",
          "type": "string"
        }
      ],
      "name": "historicalPeaks",
      "outputs": [
        {
          "internalType": "uint256",
          "name": "",
          "type": "uint256"
        }
      ],
      "stateMutability": "view",
      "type": "function"
    },
    {
      "inputs": [],
      "name": "isThresholdActive",
      "outputs": [
        {
          "internalType": "bool",
          "name": "",
          "type": "bool"
        }
      ],
      "stateMutability": "view",
      "type": "function"
    },
    {
      "inputs": [],
      "name": "lastUpdateTimestamp",
      "outputs": [
        {
          "internalType": "uint256",
          "name": "",
          "type": "uint256"
        }
      ],
      "stateMutability": "view",
      "type": "function"
    },
    {
      "inputs": [
        {
          "internalType": "address",
          "name": "to",
          "type": "address"
        }
      ],
      "name": "mintNow",
      "outputs": [],
      "stateMutability": "nonpayable",
      "type": "function"
    },
    {
      "inputs": [
        {
          "internalType": "bytes",
          "name": "performData",
          "type": "bytes"
        }
      ],
      "name": "performUpkeep",
      "outputs": [],
      "stateMutability": "nonpayable",
      "type": "function"
    },
    {
      "inputs": [
        {
          "internalType": "string",
          "name": "",
          "type": "string"
        }
      ],
      "name": "priceFeeds",
      "outputs": [
        {
          "internalType": "contract AggregatorV3Interface",
          "name": "",
          "type": "address"
        }
      ],
      "stateMutability": "view",
      "type": "function"
    },
    {
      "inputs": [
        {
          "internalType": "string",
          "name": "symbol",
          "type": "string"
        },
        {
          "internalType": "address",
          "name": "feedAddress",
          "type": "address"
        }
      ],
      "name": "registerFeed",
      "outputs": [],
      "stateMutability": "nonpayable",
      "type": "function"
    },
    {
      "inputs": [
        {
          "internalType": "string",
          "name": "",
          "type": "string"
        }
      ],
      "name": "registeredFeeds",
      "outputs": [
        {
          "internalType": "address",
          "name": "",
          "type": "address"
        }
      ],
      "stateMutability": "view",
      "type": "function"
    },
    {
      "inputs": [
        {
          "internalType": "string",
          "name": "symbol",
          "type": "string"
        }
      ],
      "name": "releaseCrypto",
      "outputs": [],
      "stateMutability": "nonpayable",
      "type": "function"
    },
    {
      "inputs": [
        {
          "internalType": "string",
          "name": "symbol",
          "type": "string"
        },
        {
          "internalType": "uint256",
          "name": "amount",
          "type": "uint256"
        }
      ],
      "name": "saveCrypto",
      "outputs": [],
      "stateMutability": "nonpayable",
      "type": "function"
    },
    {
      "inputs": [
        {
          "internalType": "address",
          "name": "",
          "type": "address"
        },
        {
          "internalType": "string",
          "name": "",
          "type": "string"
        }
      ],
      "name": "savedCrypto",
      "outputs": [
        {
          "internalType": "uint256",
          "name": "",
          "type": "uint256"
        }
      ],
      "stateMutability": "view",
      "type": "function"
    },
    {
      "inputs": [
        {
          "internalType": "string",
          "name": "symbol",
          "type": "string"
        },
        {
          "internalType": "uint256",
          "name": "amount",
          "type": "uint256"
        }
      ],
      "name": "sellTokens",
      "outputs": [],
      "stateMutability": "nonpayable",
      "type": "function"
    },
    {
      "inputs": [
        {
          "internalType": "string",
          "name": "symbol",
          "type": "string"
        },
        {
          "internalType": "address",
          "name": "feedAddress",
          "type": "address"
        }
      ],
      "name": "setPriceFeed",
      "outputs": [],
      "stateMutability": "nonpayable",
      "type": "function"
    },
    {
      "inputs": [
        {
          "internalType": "uint256",
          "name": "newInterval",
          "type": "uint256"
        }
      ],
      "name": "setUpdateInterval",
      "outputs": [],
      "stateMutability": "nonpayable",
      "type": "function"
    },
    {
      "inputs": [
        {
          "internalType": "uint256",
          "name": "",
          "type": "uint256"
        }
      ],
      "name": "supportedSymbols",
      "outputs": [
        {
          "internalType": "string",
          "name": "",
          "type": "string"
        }
      ],
      "stateMutability": "view",
      "type": "function"
    },
    {
      "inputs": [],
      "name": "token",
      "outputs": [
        {
          "internalType": "contract SimpleToken",
          "name": "",
          "type": "address"
        }
      ],
      "stateMutability": "view",
      "type": "function"
    },
    {
      "inputs": [
        {
          "internalType": "address",
          "name": "newAdmin",
          "type": "address"
        }
      ],
      "name": "transferAdmin",
      "outputs": [],
      "stateMutability": "nonpayable",
      "type": "function"
    },
    {
      "inputs": [],
      "name": "updateInterval",
      "outputs": [
        {
          "internalType": "uint256",
          "name": "",
          "type": "uint256"
        }
      ],
      "stateMutability": "view",
      "type": "function"
    },
    {
      "inputs": [
        {
          "internalType": "uint256",
          "name": "newThreshold",
          "type": "uint256"
        },
        {
          "internalType": "bool",
          "name": "active",
          "type": "bool"
        }
      ],
      "name": "updateThreshold",
      "outputs": [],
      "stateMutability": "nonpayable",
      "type": "function"
    }
  ],
  "bytecode": "0x608060405234801561001057600080fd5b5060405161395d38038061395d83398181016040528101906100329190610155565b80600160006101000a81548173ffffffffffffffffffffffffffffffffffffffff021916908373ffffffffffffffffffffffffffffffffffffffff16021790555033600360016101000a81548173ffffffffffffffffffffffffffffffffffffffff021916908373ffffffffffffffffffffffffffffffffffffffff1602179055506422ecb25c006002819055506001600360006101000a81548160ff021916908315150217905550620151806007819055504260068190555050610182565b600080fd5b600073ffffffffffffffffffffffffffffffffffffffff82169050919050565b6000610122826100f7565b9050919050565b61013281610117565b811461013d57600080fd5b50565b60008151905061014f81610129565b92915050565b60006020828403121561016b5761016a6100f2565b5b600061017984828501610140565b91505092915050565b6137cc806101916000396000f3fe608060405234801561001057600080fd5b50600436106101c45760003560e01c80637e6dbcb7116100f9578063ce1c0e4d11610097578063f7e05bcc11610071578063f7e05bcc1461053c578063f851a44014610558578063fc0c546a14610576578063fd2c80ae14610594576101c4565b8063ce1c0e4d146104e6578063e3dfd7b514610504578063f3b3347e14610520576101c4565b8063818628f7116100d3578063818628f714610438578063932d68a61461046857806398372e8414610498578063cb8ae86c146104b6576101c4565b80637e6dbcb7146103a65780637ffe3964146103d6578063813eb88814610406576101c4565b80636e04ff0d1161016657806377530e601161014057806377530e60146103225780637c5c80261461033e5780637c8ef4191461035a5780637d8ca7c614610376576101c4565b80636e04ff0d146102b95780637124c683146102ea57806375829def14610306576101c4565b80634585e33b116101a25780634585e33b146102355780635f375d49146102515780635f576c441461026d57806366ee69d914610289576101c4565b80630daaa345146101c957806314bcec9f146101e75780631cdcd16914610205575b600080fd5b6101d16105b2565b6040516101de9190611ed6565b60405180910390f35b6101ef6105b8565b6040516101fc9190611ed6565b60405180910390f35b61021f600480360381019061021a919061204b565b6105be565b60405161022c9190611ed6565b60405180910390f35b61024f600480360381019061024a91906120f4565b610759565b005b61026b6004803603810190610266919061219f565b6108d9565b005b61028760048036038101906102829190612227565b610afb565b005b6102a3600480360381019061029e919061204b565b610d55565b6040516102b09190611ed6565b60405180910390f35b6102d360048036038101906102ce91906120f4565b610d83565b6040516102e192919061231d565b60405180910390f35b61030460048036038101906102ff919061234d565b610deb565b005b610320600480360381019061031b919061237a565b610e7c565b005b61033c60048036038101906103379190612227565b610fad565b005b6103586004803603810190610353919061237a565b611023565b005b610374600480360381019061036f9190612453565b6111c4565b005b610390600480360381019061038b91906124d4565b6113da565b60405161039d9190611ed6565b60405180910390f35b6103c060048036038101906103bb919061204b565b611415565b6040516103cd919061253f565b60405180910390f35b6103f060048036038101906103eb919061204b565b61145e565b6040516103fd9190611ed6565b60405180910390f35b610420600480360381019061041b919061204b565b61152f565b60405161042f939291906125cb565b60405180910390f35b610452600480360381019061044d91906126ea565b61175a565b60405161045f91906127f1565b60405180910390f35b610482600480360381019061047d919061234d565b61189c565b60405161048f9190612813565b60405180910390f35b6104a0611948565b6040516104ad9190612835565b60405180910390f35b6104d060048036038101906104cb919061204b565b61195b565b6040516104dd91906128af565b60405180910390f35b6104ee6119a4565b6040516104fb91906129d6565b60405180910390f35b61051e6004803603810190610519919061204b565b611a7d565b005b61053a6004803603810190610535919061219f565b611c11565b005b61055660048036038101906105519190612a24565b611d32565b005b610560611e17565b60405161056d919061253f565b60405180910390f35b61057e611e3d565b60405161058b9190612a85565b60405180910390f35b61059c611e63565b6040516105a99190611ed6565b60405180910390f35b60025481565b60065481565b60008073ffffffffffffffffffffffffffffffffffffffff166000836040516105e79190612adc565b908152602001604051809103902060009054906101000a900473ffffffffffffffffffffffffffffffffffffffff1673ffffffffffffffffffffffffffffffffffffffff1603610663576040517f358e2ce700000000000000000000000000000000000000000000000000000000815260040160405180910390fd5b600080836040516106749190612adc565b908152602001604051809103902060009054906101000a900473ffffffffffffffffffffffffffffffffffffffff1673ffffffffffffffffffffffffffffffffffffffff1663feaf968c6040518163ffffffff1660e01b815260040160a060405180830381865afa1580156106ed573d6000803e3d6000fd5b505050506040513d601f19601f820116820180604052508101906107119190612b80565b50505091505060008113610750576040517ebfc92100000000000000000000000000000000000000000000000000000000815260040160405180910390fd5b80915050919050565b6007546006544261076a9190612c2a565b11156108d557426006819055506000828281019061078891906126ea565b905060005b81518110156108d25760008282815181106107ab576107aa612c5e565b5b6020026020010151905060006008826040516107c79190612adc565b908152602001604051809103902060009054906101000a900473ffffffffffffffffffffffffffffffffffffffff169050600073ffffffffffffffffffffffffffffffffffffffff168173ffffffffffffffffffffffffffffffffffffffff16146108c3578060008360405161083d9190612adc565b908152602001604051809103902060006101000a81548173ffffffffffffffffffffffffffffffffffffffff021916908373ffffffffffffffffffffffffffffffffffffffff1602179055507f74b9819a3b3ab6f1735c195541c4352dec722e0e22f92198d9f1719d2e89a75782826040516108ba929190612c8d565b60405180910390a15b5050808060010191505061078d565b50505b5050565b600360019054906101000a900473ffffffffffffffffffffffffffffffffffffffff1673ffffffffffffffffffffffffffffffffffffffff163373ffffffffffffffffffffffffffffffffffffffff1614610960576040517f7bfa4b9f00000000000000000000000000000000000000000000000000000000815260040160405180910390fd5b806008836040516109719190612adc565b908152602001604051809103902060006101000a81548173ffffffffffffffffffffffffffffffffffffffff021916908373ffffffffffffffffffffffffffffffffffffffff160217905550806000836040516109ce9190612adc565b908152602001604051809103902060006101000a81548173ffffffffffffffffffffffffffffffffffffffff021916908373ffffffffffffffffffffffffffffffffffffffff1602179055506000805b600980549050811015610a8157838051906020012060098281548110610a4757610a46612c5e565b5b90600052602060002001604051610a5e9190612dc0565b604051809103902003610a745760019150610a81565b8080600101915050610a1e565b5080610abd57600983908060018154018082558091505060019003906000526020600020016000909190919091509081610abb9190612f79565b505b7f77aadf7cec07cc754e2a4e21ee740c53687ef1aeceb74e9f6450e9c68294324e8383604051610aee929190612c8d565b60405180910390a1505050565b80600160009054906101000a900473ffffffffffffffffffffffffffffffffffffffff1673ffffffffffffffffffffffffffffffffffffffff166370a08231336040518263ffffffff1660e01b8152600401610b57919061253f565b602060405180830381865afa158015610b74573d6000803e3d6000fd5b505050506040513d601f19601f82011682018060405250810190610b98919061304b565b1015610bd0576040517f675cae3800000000000000000000000000000000000000000000000000000000815260040160405180910390fd5b6000610bdb836105be565b9050610c0581600585604051610bf19190612adc565b908152602001604051809103902054611e69565b610c3b576040517ff49c584f00000000000000000000000000000000000000000000000000000000815260040160405180910390fd5b600160009054906101000a900473ffffffffffffffffffffffffffffffffffffffff1673ffffffffffffffffffffffffffffffffffffffff166323b872dd3330856040518463ffffffff1660e01b8152600401610c9a93929190613078565b6020604051808303816000875af1158015610cb9573d6000803e3d6000fd5b505050506040513d601f19601f82011682018060405250810190610cdd91906130c4565b610d13576040517f90b8ec1800000000000000000000000000000000000000000000000000000000815260040160405180910390fd5b7f4f77de3053e0af24b9525f2f04b40c2ab3e8819d5160f3131f61ab37ad9cd82f33848484604051610d4894939291906130f1565b60405180910390a1505050565b6005818051602081018201805184825260208301602085012081835280955050505050506000915090505481565b6000606060075460065442610d989190612c2a565b1191508115610dcd5760016009604051602001610db59190613276565b60405160208183030381529060405291509150610de4565b600060405180602001604052806000815250915091505b9250929050565b600360019054906101000a900473ffffffffffffffffffffffffffffffffffffffff1673ffffffffffffffffffffffffffffffffffffffff163373ffffffffffffffffffffffffffffffffffffffff1614610e72576040517f7bfa4b9f00000000000000000000000000000000000000000000000000000000815260040160405180910390fd5b8060078190555050565b600360019054906101000a900473ffffffffffffffffffffffffffffffffffffffff1673ffffffffffffffffffffffffffffffffffffffff163373ffffffffffffffffffffffffffffffffffffffff1614610f03576040517f7bfa4b9f00000000000000000000000000000000000000000000000000000000815260040160405180910390fd5b600073ffffffffffffffffffffffffffffffffffffffff168173ffffffffffffffffffffffffffffffffffffffff1603610f69576040517fb090916900000000000000000000000000000000000000000000000000000000815260040160405180910390fd5b80600360016101000a81548173ffffffffffffffffffffffffffffffffffffffff021916908373ffffffffffffffffffffffffffffffffffffffff16021790555050565b80600460003373ffffffffffffffffffffffffffffffffffffffff1673ffffffffffffffffffffffffffffffffffffffff16815260200190815260200160002083604051610ffb9190612adc565b908152602001604051809103902060008282546110189190613298565b925050819055505050565b600360009054906101000a900460ff16611069576040517fc582bd9f00000000000000000000000000000000000000000000000000000000815260040160405180910390fd5b60006110a96040518060400160405280600781526020017f4554482f555344000000000000000000000000000000000000000000000000008152506105be565b90506002548110156110e7576040517f84c535b700000000000000000000000000000000000000000000000000000000815260040160405180910390fd5b600068056bc75e2d631000009050600160009054906101000a900473ffffffffffffffffffffffffffffffffffffffff1673ffffffffffffffffffffffffffffffffffffffff166340c10f1984836040518363ffffffff1660e01b81526004016111529291906132cc565b600060405180830381600087803b15801561116c57600080fd5b505af1158015611180573d6000803e3d6000fd5b505050507f2e8ac5177a616f2aec08c3048f5021e4e9743ece034e8d83ba5caf76688bb4758382846040516111b7939291906132f5565b60405180910390a1505050565b600360019054906101000a900473ffffffffffffffffffffffffffffffffffffffff1673ffffffffffffffffffffffffffffffffffffffff163373ffffffffffffffffffffffffffffffffffffffff161461124b576040517f7bfa4b9f00000000000000000000000000000000000000000000000000000000815260040160405180910390fd5b81819050848490501461128a576040517fb7c1140d00000000000000000000000000000000000000000000000000000000815260040160405180910390fd5b60005b848490508110156113d3578282828181106112ab576112aa612c5e565b5b90506020020160208101906112c0919061237a565b60008686848181106112d5576112d4612c5e565b5b90506020028101906112e7919061333b565b6040516112f59291906133c3565b908152602001604051809103902060006101000a81548173ffffffffffffffffffffffffffffffffffffffff021916908373ffffffffffffffffffffffffffffffffffffffff1602179055507f74b9819a3b3ab6f1735c195541c4352dec722e0e22f92198d9f1719d2e89a75785858381811061137557611374612c5e565b5b9050602002810190611387919061333b565b85858581811061139a57611399612c5e565b5b90506020020160208101906113af919061237a565b6040516113be93929190613409565b60405180910390a1808060010191505061128d565b5050505050565b600460205281600052604060002081805160208101820180518482526020830160208501208183528095505050505050600091509150505481565b6008818051602081018201805184825260208301602085012081835280955050505050506000915054906101000a900473ffffffffffffffffffffffffffffffffffffffff1681565b60008061146a836105be565b90506000808460405161147d9190612adc565b908152602001604051809103902060009054906101000a900473ffffffffffffffffffffffffffffffffffffffff1673ffffffffffffffffffffffffffffffffffffffff1663313ce5676040518163ffffffff1660e01b8152600401602060405180830381865afa1580156114f6573d6000803e3d6000fd5b505050506040513d601f19601f8201168201806040525081019061151a9190613467565b90506115268282611e8f565b92505050919050565b60008060606000846040516115449190612adc565b908152602001604051809103902060009054906101000a900473ffffffffffffffffffffffffffffffffffffffff169250600073ffffffffffffffffffffffffffffffffffffffff168373ffffffffffffffffffffffffffffffffffffffff1614611753576000846040516115b99190612adc565b908152602001604051809103902060009054906101000a900473ffffffffffffffffffffffffffffffffffffffff1673ffffffffffffffffffffffffffffffffffffffff1663313ce5676040518163ffffffff1660e01b8152600401602060405180830381865afa92505050801561164f57506040513d601f19601f8201168201806040525081019061164c9190613467565b60015b61165c5760009150611661565b809250505b6000846040516116719190612adc565b908152602001604051809103902060009054906101000a900473ffffffffffffffffffffffffffffffffffffffff1673ffffffffffffffffffffffffffffffffffffffff16637284e4166040518163ffffffff1660e01b8152600401600060405180830381865afa92505050801561170c57506040513d6000823e3d601f19601f820116820180604052508101906117099190613504565b60015b61174d576040518060400160405280600781526020017f556e6b6e6f776e000000000000000000000000000000000000000000000000008152509050611752565b809150505b5b9193909250565b60606000825167ffffffffffffffff81111561177957611778611f20565b5b6040519080825280602002602001820160405280156117a75781602001602082028036833780820191505090505b50905060005b835181101561189257600073ffffffffffffffffffffffffffffffffffffffff1660008583815181106117e3576117e2612c5e565b5b60200260200101516040516117f89190612adc565b908152602001604051809103902060009054906101000a900473ffffffffffffffffffffffffffffffffffffffff1673ffffffffffffffffffffffffffffffffffffffff16146118855761186584828151811061185857611857612c5e565b5b602002602001015161145e565b82828151811061187857611877612c5e565b5b6020026020010181815250505b80806001019150506117ad565b5080915050919050565b600981815481106118ac57600080fd5b9060005260206000200160009150905080546118c790612cec565b80601f01602080910402602001604051908101604052809291908181526020018280546118f390612cec565b80156119405780601f1061191557610100808354040283529160200191611940565b820191906000526020600020905b81548152906001019060200180831161192357829003601f168201915b505050505081565b600360009054906101000a900460ff1681565b6000818051602081018201805184825260208301602085012081835280955050505050506000915054906101000a900473ffffffffffffffffffffffffffffffffffffffff1681565b60606009805480602002602001604051908101604052809291908181526020016000905b82821015611a745783829060005260206000200180546119e790612cec565b80601f0160208091040260200160405190810160405280929190818152602001828054611a1390612cec565b8015611a605780601f10611a3557610100808354040283529160200191611a60565b820191906000526020600020905b815481529060010190602001808311611a4357829003601f168201915b5050505050815260200190600101906119c8565b50505050905090565b6000600460003373ffffffffffffffffffffffffffffffffffffffff1673ffffffffffffffffffffffffffffffffffffffff16815260200190815260200160002082604051611acc9190612adc565b908152602001604051809103902054905060008103611b17576040517f8fa9e89f00000000000000000000000000000000000000000000000000000000815260040160405180910390fd5b6000611b22836105be565b9050600583604051611b349190612adc565b908152602001604051809103902054811115611b6e5780600584604051611b5b9190612adc565b9081526020016040518091039020819055505b6000600460003373ffffffffffffffffffffffffffffffffffffffff1673ffffffffffffffffffffffffffffffffffffffff16815260200190815260200160002084604051611bbd9190612adc565b9081526020016040518091039020819055507fefa995cc779205a43adad150236f07969f51186b83ef23d2c85e0a0a13b6c08a33848484604051611c0494939291906130f1565b60405180910390a1505050565b600360019054906101000a900473ffffffffffffffffffffffffffffffffffffffff1673ffffffffffffffffffffffffffffffffffffffff163373ffffffffffffffffffffffffffffffffffffffff1614611c98576040517f7bfa4b9f00000000000000000000000000000000000000000000000000000000815260040160405180910390fd5b80600083604051611ca99190612adc565b908152602001604051809103902060006101000a81548173ffffffffffffffffffffffffffffffffffffffff021916908373ffffffffffffffffffffffffffffffffffffffff1602179055507f74b9819a3b3ab6f1735c195541c4352dec722e0e22f92198d9f1719d2e89a7578282604051611d26929190612c8d565b60405180910390a15050565b600360019054906101000a900473ffffffffffffffffffffffffffffffffffffffff1673ffffffffffffffffffffffffffffffffffffffff163373ffffffffffffffffffffffffffffffffffffffff1614611db9576040517f7bfa4b9f00000000000000000000000000000000000000000000000000000000815260040160405180910390fd5b8160028190555080600360006101000a81548160ff0219169083151502179055507f4bdb53411c2b8e3ab2000687b3bbe46cce192e1fcbb0fecb5854ef75a189e0ed8282604051611e0b92919061354d565b60405180910390a15050565b600360019054906101000a900473ffffffffffffffffffffffffffffffffffffffff1681565b600160009054906101000a900473ffffffffffffffffffffffffffffffffffffffff1681565b60075481565b60006064605a83611e7a9190613576565b611e8491906135e7565b831015905092915050565b600081600a611e9e919061374b565b606484611eab9190613576565b611eb591906135e7565b905092915050565b6000819050919050565b611ed081611ebd565b82525050565b6000602082019050611eeb6000830184611ec7565b92915050565b6000604051905090565b600080fd5b600080fd5b600080fd5b600080fd5b6000601f19601f8301169050919050565b7f4e487b7100000000000000000000000000000000000000000000000000000000600052604160045260246000fd5b611f5882611f0f565b810181811067ffffffffffffffff82111715611f7757611f76611f20565b5b80604052505050565b6000611f8a611ef1565b9050611f968282611f4f565b919050565b600067ffffffffffffffff821115611fb657611fb5611f20565b5b611fbf82611f0f565b9050602081019050919050565b82818337600083830152505050565b6000611fee611fe984611f9b565b611f80565b90508281526020810184848401111561200a57612009611f0a565b5b612015848285611fcc565b509392505050565b600082601f83011261203257612031611f05565b5b8135612042848260208601611fdb565b91505092915050565b60006020828403121561206157612060611efb565b5b600082013567ffffffffffffffff81111561207f5761207e611f00565b5b61208b8482850161201d565b91505092915050565b600080fd5b600080fd5b60008083601f8401126120b4576120b3611f05565b5b8235905067ffffffffffffffff8111156120d1576120d0612094565b5b6020830191508360018202830111156120ed576120ec612099565b5b9250929050565b6000806020838503121561210b5761210a611efb565b5b600083013567ffffffffffffffff81111561212957612128611f00565b5b6121358582860161209e565b92509250509250929050565b600073ffffffffffffffffffffffffffffffffffffffff82169050919050565b600061216c82612141565b9050919050565b61217c81612161565b811461218757600080fd5b50565b60008135905061219981612173565b92915050565b600080604083850312156121b6576121b5611efb565b5b600083013567ffffffffffffffff8111156121d4576121d3611f00565b5b6121e08582860161201d565b92505060206121f18582860161218a565b9150509250929050565b61220481611ebd565b811461220f57600080fd5b50565b600081359050612221816121fb565b92915050565b6000806040838503121561223e5761223d611efb565b5b600083013567ffffffffffffffff81111561225c5761225b611f00565b5b6122688582860161201d565b925050602061227985828601612212565b9150509250929050565b60008115159050919050565b61229881612283565b82525050565b600081519050919050565b600082825260208201905092915050565b60005b838110156122d85780820151818401526020810190506122bd565b60008484015250505050565b60006122ef8261229e565b6122f981856122a9565b93506123098185602086016122ba565b61231281611f0f565b840191505092915050565b6000604082019050612332600083018561228f565b818103602083015261234481846122e4565b90509392505050565b60006020828403121561236357612362611efb565b5b600061237184828501612212565b91505092915050565b6000602082840312156123905761238f611efb565b5b600061239e8482850161218a565b91505092915050565b60008083601f8401126123bd576123bc611f05565b5b8235905067ffffffffffffffff8111156123da576123d9612094565b5b6020830191508360208202830111156123f6576123f5612099565b5b9250929050565b60008083601f84011261241357612412611f05565b5b8235905067ffffffffffffffff8111156124305761242f612094565b5b60208301915083602082028301111561244c5761244b612099565b5b9250929050565b6000806000806040858703121561246d5761246c611efb565b5b600085013567ffffffffffffffff81111561248b5761248a611f00565b5b612497878288016123a7565b9450945050602085013567ffffffffffffffff8111156124ba576124b9611f00565b5b6124c6878288016123fd565b925092505092959194509250565b600080604083850312156124eb576124ea611efb565b5b60006124f98582860161218a565b925050602083013567ffffffffffffffff81111561251a57612519611f00565b5b6125268582860161201d565b9150509250929050565b61253981612161565b82525050565b60006020820190506125546000830184612530565b92915050565b600060ff82169050919050565b6125708161255a565b82525050565b600081519050919050565b600082825260208201905092915050565b600061259d82612576565b6125a78185612581565b93506125b78185602086016122ba565b6125c081611f0f565b840191505092915050565b60006060820190506125e06000830186612530565b6125ed6020830185612567565b81810360408301526125ff8184612592565b9050949350505050565b600067ffffffffffffffff82111561262457612623611f20565b5b602082029050602081019050919050565b600061264861264384612609565b611f80565b9050808382526020820190506020840283018581111561266b5761266a612099565b5b835b818110156126b257803567ffffffffffffffff8111156126905761268f611f05565b5b80860161269d898261201d565b8552602085019450505060208101905061266d565b5050509392505050565b600082601f8301126126d1576126d0611f05565b5b81356126e1848260208601612635565b91505092915050565b600060208284031215612700576126ff611efb565b5b600082013567ffffffffffffffff81111561271e5761271d611f00565b5b61272a848285016126bc565b91505092915050565b600081519050919050565b600082825260208201905092915050565b6000819050602082019050919050565b61276881611ebd565b82525050565b600061277a838361275f565b60208301905092915050565b6000602082019050919050565b600061279e82612733565b6127a8818561273e565b93506127b38361274f565b8060005b838110156127e45781516127cb888261276e565b97506127d683612786565b9250506001810190506127b7565b5085935050505092915050565b6000602082019050818103600083015261280b8184612793565b905092915050565b6000602082019050818103600083015261282d8184612592565b905092915050565b600060208201905061284a600083018461228f565b92915050565b6000819050919050565b600061287561287061286b84612141565b612850565b612141565b9050919050565b60006128878261285a565b9050919050565b60006128998261287c565b9050919050565b6128a98161288e565b82525050565b60006020820190506128c460008301846128a0565b92915050565b600081519050919050565b600082825260208201905092915050565b6000819050602082019050919050565b600082825260208201905092915050565b600061291282612576565b61291c81856128f6565b935061292c8185602086016122ba565b61293581611f0f565b840191505092915050565b600061294c8383612907565b905092915050565b6000602082019050919050565b600061296c826128ca565b61297681856128d5565b935083602082028501612988856128e6565b8060005b858110156129c457848403895281516129a58582612940565b94506129b083612954565b925060208a0199505060018101905061298c565b50829750879550505050505092915050565b600060208201905081810360008301526129f08184612961565b905092915050565b612a0181612283565b8114612a0c57600080fd5b50565b600081359050612a1e816129f8565b92915050565b60008060408385031215612a3b57612a3a611efb565b5b6000612a4985828601612212565b9250506020612a5a85828601612a0f565b9150509250929050565b6000612a6f8261287c565b9050919050565b612a7f81612a64565b82525050565b6000602082019050612a9a6000830184612a76565b92915050565b600081905092915050565b6000612ab682612576565b612ac08185612aa0565b9350612ad08185602086016122ba565b80840191505092915050565b6000612ae88284612aab565b915081905092915050565b600069ffffffffffffffffffff82169050919050565b612b1281612af3565b8114612b1d57600080fd5b50565b600081519050612b2f81612b09565b92915050565b6000819050919050565b612b4881612b35565b8114612b5357600080fd5b50565b600081519050612b6581612b3f565b92915050565b600081519050612b7a816121fb565b92915050565b600080600080600060a08688031215612b9c57612b9b611efb565b5b6000612baa88828901612b20565b9550506020612bbb88828901612b56565b9450506040612bcc88828901612b6b565b9350506060612bdd88828901612b6b565b9250506080612bee88828901612b20565b9150509295509295909350565b7f4e487b7100000000000000000000000000000000000000000000000000000000600052601160045260246000fd5b6000612c3582611ebd565b9150612c4083611ebd565b9250828203905081811115612c5857612c57612bfb565b5b92915050565b7f4e487b7100000000000000000000000000000000000000000000000000000000600052603260045260246000fd5b60006040820190508181036000830152612ca78185612592565b9050612cb66020830184612530565b9392505050565b7f4e487b7100000000000000000000000000000000000000000000000000000000600052602260045260246000fd5b60006002820490506001821680612d0457607f821691505b602082108103612d1757612d16612cbd565b5b50919050565b600081905092915050565b60008190508160005260206000209050919050565b60008154612d4a81612cec565b612d548186612d1d565b94506001821660008114612d6f5760018114612d8457612db7565b60ff1983168652811515820286019350612db7565b612d8d85612d28565b60005b83811015612daf57815481890152600182019150602081019050612d90565b838801955050505b50505092915050565b6000612dcc8284612d3d565b915081905092915050565b60008190508160005260206000209050919050565b60006020601f8301049050919050565b600082821b905092915050565b600060088302612e397fffffffffffffffffffffffffffffffffffffffffffffffffffffffffffffffff82612dfc565b612e438683612dfc565b95508019841693508086168417925050509392505050565b6000612e76612e71612e6c84611ebd565b612850565b611ebd565b9050919050565b6000819050919050565b612e9083612e5b565b612ea4612e9c82612e7d565b848454612e09565b825550505050565b600090565b612eb9612eac565b612ec4818484612e87565b505050565b5b81811015612ee857612edd600082612eb1565b600181019050612eca565b5050565b601f821115612f2d57612efe81612dd7565b612f0784612dec565b81016020851015612f16578190505b612f2a612f2285612dec565b830182612ec9565b50505b505050565b600082821c905092915050565b6000612f5060001984600802612f32565b1980831691505092915050565b6000612f698383612f3f565b9150826002028217905092915050565b612f8282612576565b67ffffffffffffffff811115612f9b57612f9a611f20565b5b612fa58254612cec565b612fb0828285612eec565b600060209050601f831160018114612fe35760008415612fd1578287015190505b612fdb8582612f5d565b865550613043565b601f198416612ff186612dd7565b60005b8281101561301957848901518255600182019150602085019450602081019050612ff4565b868310156130365784890151613032601f891682612f3f565b8355505b6001600288020188555050505b505050505050565b60006020828403121561306157613060611efb565b5b600061306f84828501612b6b565b91505092915050565b600060608201905061308d6000830186612530565b61309a6020830185612530565b6130a76040830184611ec7565b949350505050565b6000815190506130be816129f8565b92915050565b6000602082840312156130da576130d9611efb565b5b60006130e8848285016130af565b91505092915050565b60006080820190506131066000830187612530565b81810360208301526131188186612592565b90506131276040830185611ec7565b6131346060830184611ec7565b95945050505050565b600081549050919050565b60008190508160005260206000209050919050565b6000815461316a81612cec565b61317481866128f6565b9450600182166000811461318f57600181146131a5576131d8565b60ff1983168652811515602002860193506131d8565b6131ae85612dd7565b60005b838110156131d0578154818901526001820191506020810190506131b1565b808801955050505b50505092915050565b60006131ed838361315d565b905092915050565b6000600182019050919050565b600061320d8261313d565b61321781856128d5565b93508360208202850161322985613148565b8060005b858110156132645784840389528161324585826131e1565b9450613250836131f5565b925060208a0199505060018101905061322d565b50829750879550505050505092915050565b600060208201905081810360008301526132908184613202565b905092915050565b60006132a382611ebd565b91506132ae83611ebd565b92508282019050808211156132c6576132c5612bfb565b5b92915050565b60006040820190506132e16000830185612530565b6132ee6020830184611ec7565b9392505050565b600060608201905061330a6000830186612530565b6133176020830185611ec7565b6133246040830184611ec7565b949350505050565b600080fd5b600080fd5b600080fd5b600080833560016020038436030381126133585761335761332c565b5b80840192508235915067ffffffffffffffff82111561337a57613379613331565b5b60208301925060018202360383131561339657613395613336565b5b509250929050565b60006133aa8385612aa0565b93506133b7838584611fcc565b82840190509392505050565b60006133d082848661339e565b91508190509392505050565b60006133e88385612581565b93506133f5838584611fcc565b6133fe83611f0f565b840190509392505050565b600060408201905081810360008301526134248185876133dc565b90506134336020830184612530565b949350505050565b6134448161255a565b811461344f57600080fd5b50565b6000815190506134618161343b565b92915050565b60006020828403121561347d5761347c611efb565b5b600061348b84828501613452565b91505092915050565b60006134a76134a284611f9b565b611f80565b9050828152602081018484840111156134c3576134c2611f0a565b5b6134ce8482856122ba565b509392505050565b600082601f8301126134eb576134ea611f05565b5b81516134fb848260208601613494565b91505092915050565b60006020828403121561351a57613519611efb565b5b600082015167ffffffffffffffff81111561353857613537611f00565b5b613544848285016134d6565b91505092915050565b60006040820190506135626000830185611ec7565b61356f602083018461228f565b9392505050565b600061358182611ebd565b915061358c83611ebd565b925082820261359a81611ebd565b915082820484148315176135b1576135b0612bfb565b5b5092915050565b7f4e487b7100000000000000000000000000000000000000000000000000000000600052601260045260246000fd5b60006135f282611ebd565b91506135fd83611ebd565b92508261360d5761360c6135b8565b5b828204905092915050565b60008160011c9050919050565b6000808291508390505b600185111561366f5780860481111561364b5761364a612bfb565b5b600185161561365a5780820291505b808102905061366885613618565b945061362f565b94509492505050565b6000826136885760019050613744565b816136965760009050613744565b81600181146136ac57600281146136b6576136e5565b6001915050613744565b60ff8411156136c8576136c7612bfb565b5b8360020a9150848211156136df576136de612bfb565b5b50613744565b5060208310610133831016604e8410600b841016171561371a5782820a90508381111561371557613714612bfb565b5b613744565b6137278484846001613625565b9250905081840481111561373e5761373d612bfb565b5b81810290505b9392505050565b600061375682611ebd565b91506137618361255a565b925061378e7fffffffffffffffffffffffffffffffffffffffffffffffffffffffffffffffff8484613678565b90509291505056fea2646970667358221220b9979bb65d93c1009f225bd3c9b9c414cdf4d5486d3ac638f3be420c37c9ad9964736f6c634300081c0033",
  "linkReferences": {},
  "deployedLinkReferences": {}
}